:100000000C942A000C9447000C9447000C94470071
:100010000C9447000C9447000C9447000C94DF1696
:100020000C9447000C9447000C94600F0C94890FBB
:100030000C9447000C9436110C9489110C946011A7
:100040000C9447000C9447000C9447000C94470014
:100050000C94470011241FBECFE5D8E0DEBFCDBF12
:1000600011E0A0E6B0E0E8E3F1E402C005900D92F3
:10007000AE36B107D9F716E0AEE6B1E001C01D9289
:10008000AB34B107E1F70E94BC1F0C949A200C948A
:100090000000EF92FF920F93DF93CF93CDB7DEB7BF
:1000A00060970FB6F894DEBF0FBECDBFA82F002318
:1000B00009F461C07E010894E11CF11C88E0F7019D
:1000C00011928A95E9F729833A834B835C836D8388
:1000D0007E83AF83988780E2801BE82FFF27E7FDB0
:1000E000F09549815A816B817C81181684F01986BC
:1000F0001A861B861C86882799278E1B9F0B04C097
:10010000440F551F661F771F8A95D2F728C0202FEE
:10011000332727FD3095DB01CA01022E04C0880F6A
:10012000991FAA1FBB1F0A94D2F789879A87AB87AA
:10013000BC8704C07695679557954795EA95D2F7A1
:100140008D819E81AF81B88504C0880F991FAA1F39
:10015000BB1F2A95D2F7482B592B6A2B7B2B4D8737
:100160005E876F87788B29853A854B855C856D85A1
:100170007E85AF8598898A2F60960FB6F894DEBF8A
:100180000FBECDBFCF91DF910F91FF90EF900895FB
:10019000AEE5B0E0EEECF0E00C944420A8E04E01B7
:1001A0000894811C911CF4016A2E11926A94E9F75B
:1001B00029833A834B835C836D837E838F83988707
:1001C000CE010996FC011192AA95E9F7A986BA8693
:1001D000CB86DC86ED86FE860F87188B29843A84D1
:1001E0004B845C84ED84FE840F85188969807A8055
:1001F0008B809C806DA67EA68FA698AA6D807E803F
:100200008F809884E114F1040105110509F0B3C34E
:10021000621473048404950408F03DC100E02016C4
:1002200000E0300601E0400600E0500688F41FEFD1
:10023000211631044104510439F030F048E0E42E35
:10024000F12C012D112D18C0EE24FF24870114C0BC
:1002500020E0221620E0320620E0420621E052068D
:1002600030F038E1E32EF12C012D112D05C020E1F5
:10027000E22EF12C012D112DD201C1010E2C04C052
:10028000B695A795979587950A94D2F78B599F4F66
:10029000DC012C9180E290E0A0E0B0E08E199F0993
:1002A000A00BB10B7C018D01E21AF10801091109C3
:1002B000E114F10401051105A1F10E2C04C0220C7A
:1002C000331C441C551C0A94D2F7A40193010E2C34
:1002D00004C0220F331F441F551F0A94D2F780E237
:1002E00090E08E199F096DA47EA48FA498A804C0E5
:1002F00096948794779467948A95D2F7622A732AA2
:10030000842A952AADA4BEA4CFA4D8A804C0AA0C60
:10031000BB1CCC1CDD1CEA94D2F7ADA6BEA6CFA6B2
:10032000D8AA6201EE24FF24CDAADEAAEFAAF8AE75
:10033000920181012070307009AF1AAF2BAF3CAF32
:10034000C401B301A70196010E9422207B018C0108
:10035000C401B3012DA93EA94FA958AD0E94222086
:10036000C901DA013C014D01C401B30129AD3AAD27
:100370004BAD5CAD0E9403209B01AC018701FF24C3
:10038000EE24ADA4BEA4CFA4D8A8C601AA27BB273B
:1003900057016801A82AB92ACA2ADB2AA216B3067D
:1003A000C406D506E0F40894610871088108910834
:1003B000A20CB31CC41CD51CA214B304C404D504E1
:1003C00070F0A216B306C406D50648F40894610876
:1003D000710881089108A20CB31CC41CD51CA21A78
:1003E000B30AC40AD50AC601B5012DA93EA94FA971
:1003F00058AD0E9422207B018C01C601B5012DA9B8
:100400003EA94FA958AD0E942220C901DA015C0122
:100410006D01C601B50129AD3AAD4BAD5CAD0E9491
:1004200003209B01AC018701FF24EE248DA59EA52E
:10043000AFA5B8A9A070B070E82AF92A0A2B1B2B27
:10044000E216F30604071507C0F40894A108B108E2
:10045000C108D108E20CF31C041D151DE214F304BD
:100460000405150550F0E216F3060407150728F4F5
:100470000894A108B108C108D108D3019927882799
:1004800086017501E82AF92A0A2B1B2BE9AAFAAA88
:100490000BAB1CABCFC4211431044104510471F4E3
:1004A00061E070E080E090E020E030E040E050E08B
:1004B0000E942220C901DA011C012D0100E0201652
:1004C00000E0300601E0400600E0500688F41FEF2F
:1004D000211631044104510431F028F048E050E085
:1004E00060E070E017C040E050E060E070E012C0F3
:1004F00020E0221620E0320620E0420621E05206EB
:1005000028F048E150E060E070E004C040E150E0D5
:1005100060E070E0D201C101042E04C0B695A79539
:10052000979587950A94D2F78B599F4FDC012C91B0
:10053000E0E2EE2EF12C012D112DD801C701841B14
:10054000950BA60BB70B821B9109A109B109009766
:10055000A105B10561F464015301A218B308C408F0
:10056000D50831E0632E712C812C912C1EC16F9621
:100570008FAF6F97082E04C0220C331C441C551CEF
:100580000A94D2F7EE2DE81B640153010E2E04C02D
:10059000D694C794B794A7940A94D2F7A401930170
:1005A0006F960FAC6F9704C0220F331F441F551F67
:1005B0000A94D2F76DA47EA48FA498A80E2E04C02E
:1005C00096948794779467940A94D2F78401730180
:1005D000E22AF32A042B152BE9A6FAA60BA71CA7DF
:1005E0003201882499249201810120703070219673
:1005F0000CAF1DAF2EAF3FAF2197C601B501A401CF
:1006000093010E9422207B018C01C601B501A40147
:1006100093010E942220C901DA0125968CAF9DAF7B
:10062000AEAFBFAF2597BC01CD0121962CAD3DAD3E
:100630004EAD5FAD21970E9403209B01AC01870165
:10064000FF24EE24A9A4BAA4CBA4DCA4C601AA2743
:10065000BB275C016D01AE28BF28C02AD12AA21693
:10066000B306C406D50660F525966CAD7DAD8EAD9E
:100670009FAD2597615070408040904025966CAFAB
:100680007DAF8EAF9FAF2597A20CB31CC41CD51CA9
:10069000A214B304C404D50498F0A216B306C40689
:1006A000D50670F4615070408040904025966CAF44
:1006B0007DAF8EAF9FAF2597A20CB31CC41CD51C79
:1006C000A21AB30AC40AD50AC601B501A40193014E
:1006D0000E9422207B018C01C601B501A401930177
:1006E0000E942220C901DA013C014D01C401B3017D
:1006F00021962CAD3DAD4EAD5FAD21970E940320FC
:100700009B01AC018701FF24EE2489A59AA5ABA526
:10071000BCA5A070B07057016801A82AB92ACA2ADE
:10072000DB2AA216B306C406D506E0F408946108D5
:10073000710881089108A20CB31CC41CD51CA2141A
:10074000B304C404D50470F0A216B306C406D506DB
:1007500048F408946108710881089108A20CB31C40
:10076000C41CD51C8DA59EA5AFA5B8A96F960FACCE
:100770006F9704C0880F991FAA1FBB1F0A94D2F756
:100780008DA79EA7AFA7B8ABA21AB30AC40AD50A11
:100790002596ECACFDAC0EAD1FAD2597D701992782
:1007A0008827682A792A8A2A9B2A820122273327C6
:1007B00029960CAF1DAF2EAF3FAF2997A201910133
:1007C000407050702D962CAF3DAF4EAF5FAF2D9760
:1007D000C601B50129962CAD3DAD4EAD5FAD299753
:1007E0000E9422207B018C01C601B50129962CAD07
:1007F0003DAD4EAD5FAD29970E942220C901DA01BF
:1008000061968CAF9DAFAEAFBFAF6197BC01CD011C
:100810002D962CAD3DAD4EAD5FAD2D970E940320C2
:100820009B01AC018701FF24EE24ADA4BEA4CFA49C
:10083000D8A8C601AA27BB2757016801A82AB92A48
:10084000CA2ADB2AA216B306C406D50660F561964D
:100850006CAD7DAD8EAD9FAD6197615070408040B5
:10086000904061966CAF7DAF8EAF9FAF6197A20C49
:10087000B31CC41CD51CA214B304C404D50498F042
:10088000A216B306C406D50670F4615070408040CD
:10089000904061966CAF7DAF8EAF9FAF6197A20C19
:1008A000B31CC41CD51CA21AB30AC40AD50AC601BB
:1008B000B50129962CAD3DAD4EAD5FAD29970E9497
:1008C00022207B018C01C601B50129962CAD3DADDE
:1008D0004EAD5FAD29970E942220C901DA015C016B
:1008E0006D01C601B5012D962CAD3DAD4EAD5FAD90
:1008F0002D970E9403209B01AC018701FF24EE2469
:100900008DA59EA5AFA5B8A9A070B070E82AF92A58
:100910000A2B1B2BE216F30604071507C0F40894F4
:10092000A108B108C108D108E20CF31C041D151D73
:10093000E214F3040405150550F0E216F30604076B
:10094000150728F40894A108B108C108D1086196D8
:10095000ECACFDAC0EAD1FAD6197D7019927882790
:1009600096018501082B192B2A2B3B2B09AB1AABBF
:100970002BAB3CAB62C26E147F048006910608F478
:1009800051C220E0E21620E0F20621E0020720E05A
:10099000120788F43FEFE316F1040105110531F069
:1009A00028F048E050E060E070E017C040E050E020
:1009B00060E070E012C040E0E41640E0F40640E081
:1009C000040741E0140728F048E150E060E070E0DF
:1009D00004C040E150E060E070E0D801C701042E9F
:1009E00004C0B695A795979587950A94D2F78B5929
:1009F0009F4FDC012C9130E2A32EB12CC12CD12CC5
:100A0000D601C501841B950BA60BB70B821B910960
:100A1000A109B1090097A105B10589F4E614F7040D
:100A20000805190508F4F2C16DA47EA48FA498A846
:100A3000621473048404950408F0E8C1F3C16E964F
:100A40008FAF6E97082E04C0EE0CFF1C001F111F05
:100A50000A94D2F76A2D681BD201C101062E04C088
:100A6000B695A795979587950A94D2F75C016D0185
:100A7000AE28BF28C02AD12AADA2BEA2CFA2D8A636
:100A8000720161016E960FAC6E9704C0CC0CDD1C38
:100A9000EE1CFF1C0A94D2F7C9A2DAA2EBA2FCA2B8
:100AA00064015301062E04C0D694C794B794A7944A
:100AB0000A94D2F7D401C3016E960FAC6E9704C0AE
:100AC000880F991FAA1FBB1F0A94D2F7EDA4FEA49A
:100AD0000FA518A904C016950795F794E7946A9591
:100AE000D2F737014801682A792A8A2A9B2A6D8E13
:100AF0007E8E8F8E98A2EDA0FEA00FA118A53801C2
:100B000088249924980187012070307065960CAF75
:100B10001DAF2EAF3FAF6597C601B501A40193018C
:100B20000E9422207B018C01C601B501A401930122
:100B30000E942220C901DA011C012D01C201B1016C
:100B400065962CAD3DAD4EAD5FAD65970E9403201F
:100B50009B01AC018701FF24EE24AD8CBE8CCF8CB1
:100B6000D8A0C601AA27BB2757016801A82AB92A1D
:100B7000CA2ADB2AA216B306C406D50600F50894D5
:100B80002108310841085108EDA0FEA00FA118A5C9
:100B9000AE0CBF1CC01ED11EAE14BF04C006D106D1
:100BA00070F0A216B306C406D50648F408942108CE
:100BB000310841085108AE0CBF1CC01ED11EA21A3C
:100BC000B30AC40AD50AC601B501A40193010E9463
:100BD00022207B018C01C601B501A40193010E9472
:100BE0002220C901DA013C014D01C401B30165961F
:100BF0002CAD3DAD4EAD5FAD65970E9403209B01CE
:100C0000AC018701FF24EE248D8D9E8DAF8DB8A1A0
:100C1000A070B07057016801A82AB92ACA2ADB2A35
:100C2000A216B306C406D50600F50894610871083B
:100C3000810891086DA17EA18FA198A5A60EB71E6F
:100C4000C81ED91EA616B706C806D90670F0A21689
:100C5000B306C406D50648F40894610871088108F3
:100C60009108A60EB71EC81ED91ED601C501821B4B
:100C7000930BA40BB50B898F9A8FAB8FBC8FD101CF
:100C80009927882764015301A82AB92ACA2ADB2A8E
:100C9000A9AABAAACBAADCAA860175012FEF3FEF59
:100CA00040E050E0E222F32204231523A601662748
:100CB00077276D964CAF5DAF6EAF7FAF6D97A9A0F4
:100CC000BAA0CBA0DCA06FEF7FEF80E090E0A6227F
:100CD000B722C822D92289A19AA1ABA1BCA11D012A
:100CE00044245524C801B701A60195010E940320A0
:100CF00069966CAF7DAF8EAF9FAF6997C801B701A2
:100D0000A20191010E9403203B014C016D966CAD44
:100D10007DAD8EAD9FAD6D97A60195010E9403201C
:100D20007B018C016D966CAD7DAD8EAD9FAD6D97E9
:100D3000A20191010E9403205B016C01A8019701AF
:100D4000260D371D481D591D69966CAC7DAC8EACC7
:100D50009FAC6997C401AA27BB27280F391F4A1FD8
:100D60005B1F2E153F054007510748F4E12CF12C7D
:100D700061E0062F112DAE0CBF1CC01ED11ECA0192
:100D8000AA27BB27BC01CD016A0D7B1D8C1D9D1DB3
:100D9000698C7A8C8B8C9C8C6616770688069906F3
:100DA00040F1661577058805990509F043C0D9011A
:100DB0009927882769962CAD3DAD4EAD5FAD6997FB
:100DC00040705070820F931FA41FB51F2DA53EA524
:100DD0004FA558A96E960FAC6E9704C0220F331F13
:100DE000441F551F0A94D2F7281739074A075B0793
:100DF00008F509A91AA92BA93CA9015010402040C7
:100E0000304009AB1AAB2BAB3CAB14C06624772443
:100E1000430121E030E040E050E029AB3AAB4BAB7E
:100E20005CAB0BC066247724430119AA1AAA1BAA3B
:100E30001CAA03C0662477244301FE01719688E052
:100E4000DF011D928A95E9F7A9A8BAA8CBA8DCA86A
:100E5000A98ABA8ACB8ADC8A6D8A7E8A8F8A988E22
:100E600029A93A894B895C89662D7E898F89988D5D
:100E7000C25ADF4FE2E10C946020ABE5B0E0E3E45E
:100E8000F7E00C944420A8E04E010894811C911CCA
:100E9000F4016A2E11926A94E9F729833A834B830D
:100EA0005C836D837E838F839887CE010996FC01D6
:100EB0001192AA95E9F7A986BA86CB86DC86ED86DB
:100EC000FE860F87188B29843A844B845C84AD841A
:100ED000BE84CF84D88829813A814B815C81699610
:100EE0002FAF69976A963FAF6A976B964FAF6B9734
:100EF0006C965FAF6C976C966CAC7DAC8EAC9FAC17
:100F00006C9769AA7AAA8BAA9CAA6D817E818F812F
:100F100098853B014C016DAA7EAA8FAA98AEA114B8
:100F2000B104C104D10409F004C36214730484043D
:100F3000950408F000C100E0201600E0300601E052
:100F4000400600E0500688F41FEF211631044104EA
:100F5000510439F030F088E0E82EF12C012D112DEC
:100F600018C0EE24FF24870114C040E0241640E09E
:100F7000340640E0440641E0540630F0B8E1EB2E80
:100F8000F12C012D112D05C0A0E1EA2EF12C012D2F
:100F9000112DD201C1010E2C04C0B695A7959795CD
:100FA00087950A94D2F78B599F4FDC012C9180E2F0
:100FB00090E0A0E0B0E08E199F09A00BB10B5C019E
:100FC0006D01A21AB108C108D108A9AEBAAECBAE64
:100FD000DCAEA114B104C104D10409F43FC069AD71
:100FE000062E04C0220C331C441C551C0A94D2F754
:100FF000A4019301062E04C0220F331F441F551F66
:101000000A94D2F780E290E08A199B096C96CCACE6
:10101000DDACEEACFFAC6C9704C0F694E794D794CB
:10102000C7948A95D2F787017601E22AF32A042B26
:10103000152BEDAAFEAA0FAB18AF6C968CAD9DAD2B
:10104000AEADBFAD6C9704C0880F991FAA1FBB1F20
:101050006A95D2F789AB9AABABABBCAB32018824B3
:101060009924B201A1016070707021964CAF5DAF00
:101070006EAF7FAF21976DA97EA98FA998ADA4010E
:1010800093010E9422207B018C016DA97EA98FA96A
:1010900098ADA40193010E942220CA01B9012196B2
:1010A0002CAD3DAD4EAD5FAD21970E9403209B015D
:1010B000AC018701FF24EE24A9A8BAA8CBA8DCA81C
:1010C000C601AA27BB2757016801A82AB92ACA2A3C
:1010D000DB2AA216B306C406D50690F4A20CB31CF4
:1010E000C41CD51CA214B304C404D50448F0A21631
:1010F000B306C406D50620F4A20CB31CC41CD51C30
:10110000A21AB30AC40AD50AC601B501A401930103
:101110000E9422207B018C01C601B501A40193012C
:101120000E942220CA01B90121962CAD3DAD4EADE1
:101130005FAD2197BAC1211431044104510471F407
:1011400061E070E080E090E020E030E040E050E0DE
:101150000E942220C901DA011C012D0100E02016A5
:1011600000E0300601E0400600E0500688F41FEF82
:10117000211631044104510439F030F068E0E62EC4
:10118000F12C012D112D18C0EE24FF24870114C06D
:1011900040E0241640E0340640E0440641E05406B6
:1011A00030F058E1E52EF12C012D112D05C040E164
:1011B000E42EF12C012D112DD201C1010E2C04C001
:1011C000B695A795979587950A94D2F78B599F4F17
:1011D000DC012C9130E2A32EB12CC12CD12CD601F4
:1011E000C5018E199F09A00BB10B7C018D01E21A7C
:1011F000F10801091109E9AEFAAE0BAF1CAFE11419
:10120000F1040105110539F464015301A218B30872
:10121000C408D508E2C0F9AC6896FFAE68970F2CF9
:1012200004C0220C331C441C551C0A94D2F78A2D8E
:101230008F1964015301082E04C0D694C794B79443
:10124000A7940A94D2F7A401930104C0220F331F7C
:10125000441F551FFA94D2F76C966CAC7DAC8EACE3
:101260009FAC6C9704C096948794779467948A9502
:10127000D2F784017301E22AF32A042B152BEDA681
:10128000FEA60FA718AB320188249924B201A10150
:101290006070707025964CAF5DAF6EAF7FAF2597D5
:1012A000C601B501A40193010E9422207B018C019B
:1012B000C601B501A40193010E942220CA01B9010F
:1012C00025962CAD3DAD4EAD5FAD25970E94032018
:1012D0009B01AC018701FF24EE24ADA4BEA4CFA4E2
:1012E000D8A8C601AA27BB275C016D01AE28BF287C
:1012F000C02AD12AA216B306C406D50690F4A20CC1
:10130000B31CC41CD51CA214B304C404D50448F0F7
:10131000A216B306C406D50620F4A20CB31CC41C46
:10132000D51CA21AB30AC40AD50AC601B501A40184
:1013300093010E9422207B018C01C601B501A4010A
:1013400093010E942220CA01B90125962CAD3DAD22
:101350004EAD5FAD25970E9403209B01AC01870134
:10136000FF24EE248DA59EA5AFA5B8A9A070B070EE
:1013700057016801A82AB92ACA2ADB2AA216B3068D
:10138000C406D50690F4A20CB31CC41CD51CA21430
:10139000B304C404D50448F0A216B306C406D506A7
:1013A00020F4A20CB31CC41CD51C6C96ECACFDAC98
:1013B0000EAD1FAD6C9768960FAC689704C0EE0C2D
:1013C000FF1C001F111F0A94D2F7E9AAFAAA0BAB5F
:1013D0001CABA21AB30AC40AD50A32018824992484
:1013E000B201A1016070707029964CAF5DAF6EAF15
:1013F0007FAF2997C601B501A40193010E94222065
:101400007B018C01C601B501A40193010E94222039
:10141000CA01B90129962CAD3DAD4EAD5FAD2997FE
:101420000E9403209B01AC018701FF24EE24A9A8A0
:10143000BAA8CBA8DCA8C601AA27BB275701680118
:10144000A82AB92ACA2ADB2AA216B306C406D506D8
:1014500090F4A20CB31CC41CD51CA214B304C40485
:10146000D50448F0A216B306C406D50620F4A20C93
:10147000B31CC41CD51CA21AB30AC40AD50AC601DF
:10148000B501A40193010E9422207B018C01C601B9
:10149000B501A40193010E942220CA01B901299635
:1014A0002CAD3DAD4EAD5FAD29970E9403209B0151
:1014B000AC018701FF24EE2489A99AA9ABA9BCA994
:1014C000A070B070E82AF92A0A2B1B2BE216F3064B
:1014D0000407150790F4E20CF31C041D151DE2141B
:1014E000F3040405150548F0E216F3060407150792
:1014F00020F4E20CF31C041D151DE21AF30A040B80
:10150000150BD801C70109AC04C0B695A7959795EE
:1015100087950A94D2F7898B9A8BAB8BBC8B1D8AEB
:101520001E8A1F8A188E282F3A894B895C896D89FB
:101530000CC36A147B048C049D0408F409C300E006
:10154000A01600E0B00601E0C00600E0D00688F476
:101550001FEFA116B104C104D10439F030F028E026
:10156000E22EF12C012D112D18C0EE24FF2487014D
:1015700014C040E0A41640E0B40640E0C40641E0D8
:10158000D40630F098E1E92EF12C012D112D05C083
:1015900080E1E82EF12C012D112DD601C5010E2C74
:1015A00004C0B695A795979587950A94D2F78B595D
:1015B0009F4FDC012C9180E290E0A0E0B0E08E191A
:1015C0009F09A00BB10B821B9109A109B1090097DA
:1015D000A105B10509F04FC0A614B704C804D90489
:1015E00058F06C96ECACFDAC0EAD1FAD6C97E214F0
:1015F000F3040405150568F16C96ECACFDAC0EAD7A
:101600001FAD6C97E218F30804091509A4019301B2
:101610002A193B094C095D09AA24BB2465016C9673
:101620006CAD7DAD8EAD9FAD6C976E157F0580075F
:10163000910728F4B1E0AB2EB12CC12CD12CDA01EA
:10164000C9018A199B09AC09BD098DAB9EABAFAB33
:10165000B8AFE98AFA8A0B8B1C8B6DA87EA88FA87D
:1016600098AC6D8A7E8A8F8A988E2E2D3A894B8906
:101670005C896DA96AC267968FAF6797A6019501CD
:10168000082E04C0220F331F441F551F0A94D2F79F
:10169000A0E2AA2EA81A6696AFAE6697D201C10143
:1016A00004C0B695A79597958795AA94D2F76C0133
:1016B0007D01C22AD32AE42AF52AC9A6DAA6EBA616
:1016C000FCA68201710167960FAC679704C0EE0C0F
:1016D000FF1C001F111F0A94D2F7EDA2FEA20FA358
:1016E00018A76401530166960FAC669704C0D694A0
:1016F000C794B794A7940A94D2F7A401930167966C
:101700000FAC679704C0220F331F441F551F0A9464
:10171000D2F76C968CAD9DADAEADBFAD6C976696B5
:101720000FAC669704C0B695A795979587950A94D0
:10173000D2F73C014D01622A732A842A952A69A2B4
:101740007AA28BA29CA26C96ECACFDAC0EAD1FAD48
:101750006C9767960FAC679704C0EE0CFF1C001FD8
:10176000111F0A94D2F7ED8EFE8E0F8F18A349A594
:101770005AA56BA57CA53B018824992460707070E4
:101780002D964CAF5DAF6EAF7FAF2D97C601B50103
:10179000A40193010E9422207B018C01C601B501A6
:1017A000A40193010E942220C901DA011C012D012C
:1017B000C201B1012D962CAD3DAD4EAD5FAD2D9763
:1017C0000E9403209B01AC018701FF24EE24A9A005
:1017D000BAA0CBA0DCA0C601AA27BB27570168018D
:1017E000A82AB92ACA2ADB2AA216B306C406D50635
:1017F00000F508942108310841085108E9A4FAA429
:101800000BA51CA5AE0CBF1CC01ED11EAE14BF0480
:10181000C006D10670F0A216B306C406D50648F479
:1018200008942108310841085108AE0CBF1CC01EA5
:10183000D11EA21AB30AC40AD50AC601B501A40171
:1018400093010E9422207B018C01C601B501A401F5
:1018500093010E942220C901DA013C014D01C4011B
:10186000B3012D962CAD3DAD4EAD5FAD2D970E94D1
:1018700003209B01AC018701FF24EE2489A19AA1DA
:10188000ABA1BCA1A070B07057016801A82AB92A09
:10189000CA2ADB2AA216B306C406D50600F50894A8
:1018A000610871088108910869A57AA58BA59CA596
:1018B000A60EB71EC81ED91EA616B706C806D9069C
:1018C00070F0A216B306C406D50648F40894610861
:1018D000710881089108A60EB71EC81ED91ED60130
:1018E000C501821B930BA40BB50B898F9A8FAB8F0D
:1018F000BC8FD1019927882784017301E82AF92A2E
:101900000A2B1B2B4FEFA42E4FEFB42EC12CD12C42
:10191000AE20BF20C022D1227801002711276DA060
:101920007EA08FA098A44FEF5FEF60E070E064228C
:101930007522862297228DA19EA1AFA1B8A5BD01D7
:101940008827992765966CAF7DAF8EAF9FAF65975F
:10195000C601B501A40193010E94032061966CAFFA
:101960007DAF8EAF9FAF6197C601B50165962CAD77
:101970003DAD4EAD5FAD65970E9403201B012C016C
:10198000C801B701A40193010E9403205B016C010F
:10199000C801B70165962CAD3DAD4EAD5FAD659705
:1019A0000E9403207B018C01A6019501220D331DAD
:1019B000441D551D61966CAC7DAC8EAC9FAC61979F
:1019C000C401AA27BB27280F391F4A1F5B1F2A15EE
:1019D0003B054C055D0548F4812C912CE1E0AE2ED1
:1019E000B12CE80CF91C0A1D1B1DCA01AA27BB2734
:1019F00057016801A80EB91ECA1EDB1EA9013327B4
:101A0000222761968CAD9DADAEADBFAD6197A07044
:101A1000B070280F391F4A1F5B1FE98CFA8C0B8DA1
:101A20001C8DEA14FB040C051D0570F0AE14BF04F8
:101A3000C006D10669F56D8D7E8D8F8D98A16217D8
:101A400073078407950720F5DA01C9016DA07EA010
:101A50008FA098A486199709A809B909E9A4FAA43E
:101A60000BA51CA5AE18BF08C00AD10AEE24FF249E
:101A70008701281739074A075B0728F421E0E22E7F
:101A8000F12C012D112DAE18BF08C00AD10A02C0D9
:101A9000DA01C9016D8C7E8C8F8C98A0681A790A46
:101AA0008A0A9B0A498D5A8D6B8D7C8D4A195B0978
:101AB0006C097D095A016B012224332421016D8DAB
:101AC0007E8D8F8D98A1661577058805990528F478
:101AD00081E0282E312C412C512C86017501E21811
:101AE000F30804091509A801970166960FAC6697DB
:101AF00004C0220F331F441F551F0A94D2F7D4018C
:101B0000C30167960FAC679704C0B695A7959795E4
:101B100087950A94D2F7282B392B4A2B5B2B298BDC
:101B20003A8B4B8B5C8B67960FAC679704C016950E
:101B30000795F794E7940A94D2F7ED8AFE8A0F8B03
:101B4000188F3A894B895C896E2D7E898F89988D93
:101B5000C55ADF4FE2E10C9460208130D1F1813031
:101B600038F0823009F466C0833009F0C3C093C0F6
:101B7000423059F42AB381E090E002C0880F991FE7
:101B80006A95E2F7282B2ABB0895442379F48AB397
:101B900021E030E002C0220F331F6A95E2F7209562
:101BA00082238ABB8BB328232BBB0895413009F0D5
:101BB000A1C03AB381E090E002C0880F991F6A95F6
:101BC000E2F7282F209523232ABB2BB3822B8BBB34
:101BD0000895423059F427B381E090E002C0880FA5
:101BE000991F6A95E2F7282B27BB0895442379F4BF
:101BF00087B321E030E002C0220F331F6A95E2F77D
:101C00002095822387BB88B3282328BB08954130C1
:101C100009F070C037B381E090E002C0880F991FCF
:101C20006A95E2F7282F2095232327BB28B3822B20
:101C300088BB0895423059F424B381E090E002C09B
:101C4000880F991F6A95E2F7282B24BB0895442337
:101C500079F484B321E030E002C0220F331F6A958B
:101C6000E2F72095822384BB85B3282325BB089502
:101C7000413009F03FC034B381E090E002C0880FEA
:101C8000991F6A95E2F7282F2095232324BB25B3BB
:101C9000822B85BB0895423059F421B381E090E056
:101CA00002C0880F991F6A95E2F7282B21BB08957F
:101CB000442379F481B321E030E002C0220F331FC6
:101CC0006A95E2F72095822381BB82B3282322BB49
:101CD0000895413079F431B381E090E002C0880F7B
:101CE000991F6A95E2F7282F2095232321BB22B361
:101CF000822B82BB0895813029F1813038F0823007
:101D000009F43CC0833009F06EC053C0413059F42F
:101D10002BB381E090E002C0880F991F6A95E2F72B
:101D2000282B2BBB0895442309F05DC02BB381E021
:101D300090E002C0880F991F6A95E2F78095822390
:101D40008BBB0895413059F428B381E090E002C084
:101D5000880F991F6A95E2F7282B28BB0895442322
:101D600009F041C028B381E090E002C0880F991FBC
:101D70006A95E2F78095822388BB0895413059F433
:101D800025B381E090E002C0880F991F6A95E2F7C1
:101D9000282B25BB0895442331F525B381E090E03D
:101DA00002C0880F991F6A95E2F78095822385BB50
:101DB0000895413059F422B381E090E002C0880FC9
:101DC000991F6A95E2F7282B22BB0895442359F402
:101DD00022B381E090E002C0880F991F6A95E2F774
:101DE0008095822382BB08958130A9F0813030F044
:101DF0008230F1F0833081F180E008958BB321E0EF
:101E000030E0062E02C0220F331F0A94E2F7822729
:101E10008BBB89B319C088B321E030E0062E02C025
:101E2000220F331F0A94E2F7822788BB86B30CC0C7
:101E300085B321E030E0062E02C0220F331F0A9442
:101E4000E2F7822785BB83B390E002C09595879522
:101E50006A95E2F78170089582B321E030E0062EA2
:101E600002C0220F331F0A94E2F7822782BB80B39D
:101E700090E002C0959587956A95E2F78170089584
:101E8000813051F0813030F0823041F0833079F090
:101E900080E0089589B303C086B301C083B390E0A6
:101EA00002C0959587956A95E2F78170089580B391
:101EB00090E002C0959587956A95E2F78170089544
:101EC0001F920F920FB60F9211242F933F934F93AF
:101ED0005F936F937F938F939F93AF93BF93EF9392
:101EE000FF93E0916E01F0916F01309709F0099531
:101EF000FF91EF91BF91AF919F918F917F916F91E2
:101F00005F914F913F912F910F900FBE0F901F90B7
:101F100018951F920F920FB60F9211242F933F9393
:101F20004F935F936F937F938F939F93AF93BF93E1
:101F3000EF93FF93E0917001F0917101309709F0F8
:101F40000995FF91EF91BF91AF919F918F917F91F3
:101F50006F915F914F913F912F910F900FBE0F9016
:101F60001F901895FB01882379F58081882319F04B
:101F7000813051F403C083B7877F02C083B7886084
:101F800083BF83B78F7B83BF6181613051F0613044
:101F900028F0623061F06330B9F410C083B78F7EEF
:101FA00002C083B7806183BF83B78F7D05C083B7CD
:101FB0008F7E83BF83B7806283BF089583B78061BC
:101FC00083BF83B7806283BF08958823C1F56330E0
:101FD00001F1643028F4613081F0623088F407C088
:101FE000653001F16530C0F0663041F51EC083B741
:101FF000816083BF83B78D7F08C083B78E7F02C0A7
:1020000083B7816083BF83B7826083BF83B78B7FD1
:1020100014C083B78E7F02C083B7816083BF83B74C
:102020008D7F08C083B78E7F02C083B7816083BF76
:1020300083B7826083BF83B7846083BF12BE089575
:10204000882349F483B78B7F83BF83B78D7F83BF9A
:1020500083B78E7F83BF0895882309F412BE089545
:10206000882309F462BF0895882309F46CBF08959A
:10207000882319F0813041F404C089B7826089BF98
:10208000089589B7816089BF0895882319F0813048
:1020900041F404C089B78D7F89BF089589B78E7FC9
:1020A00089BF0895882319F0813051F405C07093D9
:1020B0006F0160936E0108957093710160937001D8
:1020C0000895882319F020E030E003C082B7282F5C
:1020D00030E0C9010895CF93DF93DC01E9EFF5E02B
:1020E000C0E0D0E02C2F80819181892BB9F433E0BE
:1020F000CC0FDD1F3A95E1F7FE01E750FA4FB183AF
:10210000A083DE01A550BA4F6D937C93C350DA4F84
:102110005983488381E08683178206C02F5F21960A
:102120003896CA30D105F1F6822FDF91CF9108950C
:102130008A30C8F4E82FF0E063E0EE0FFF1F6A95E5
:10214000E1F7CF0187509A4FDC011D921C92DF010D
:10215000A550BA4F1D921C92E350FA4F1182108283
:10216000FC011682178208951F9310E0812F0E94B0
:1021700098101F5F1A30D1F71F9108958A3050F4DC
:10218000E82FF0E073E0EE0FFF1F7A95E1F7E750DC
:10219000FA4F168208958A3058F4E82FF0E0A3E051
:1021A000EE0FFF1FAA95E1F7E750FA4F81E0868313
:1021B00008951F93CF93DF9310E0C12FD0E0FE016D
:1021C00083E0EE0FFF1F8A95E1F7E750FA4F878112
:1021D0008130B1F48681882399F017820190F081D3
:1021E000E02D0995B3E0CC0FDD1FBA95E1F7C350A0
:1021F000DA4F88819981892B19F4812F0E949810D8
:102200001F5F1A30D0F2D8CFE9EFF5E021E08081EE
:102210009181892B71F082819381892B29F48481AA
:10222000958193838283278382819381019793830E
:102230008283389686E0E934F80749F7089580E00C
:1022400065E671E00E94B20F80E06DE770E00E94E9
:10225000341080E064E071E10E94521080E00E943E
:10226000381080E062E00E94E50F08951F920F92FF
:102270000FB60F9211242F933F934F935F936F9359
:102280007F938F939F93AF93BF93EF93FF93E091CF
:102290007E01F0917F01309711F08CB10995FF918B
:1022A000EF91BF91AF919F918F917F916F915F91CE
:1022B0004F913F912F910F900FBE0F901F90189547
:1022C0001F920F920FB60F9211242F933F934F93AB
:1022D0005F936F937F938F939F93AF93BF93EF938E
:1022E000FF93E0918001F0918101309709F0099509
:1022F000FF91EF91BF91AF919F918F917F916F91DE
:102300005F914F913F912F910F900FBE0F901F90B3
:1023100018951F920F920FB60F9211242F933F938F
:102320004F935F936F937F938F939F93AF93BF93DD
:10233000EF93FF93E0918201F0918301309709F0D0
:102340000995FF91EF91BF91AF919F918F917F91EF
:102350006F915F914F913F912F910F900FBE0F9012
:102360001F901895599883E389B910BC08955D9B17
:10237000FECF8CB95E9BFECF5E9A08952F923F925E
:102380004F925F926F927F928F929F92AF92BF9285
:10239000CF92DF92EF92FF920F931F93DF93CF9331
:1023A0000F92CDB7DEB76B017C0197FF0BC0F094A5
:1023B000E094D094C094C11CD11CE11CF11C8DE2AE
:1023C0000E94B71122243324442455246624772400
:1023D0008824992419829101A201B301C40101E06A
:1023E0000E944900122FB32EA42E952E862E772EF2
:1023F000682E392E02E00E944900022F010F21E0D1
:10240000011708F020E03B0DE1E03B1508F0E0E0AB
:10241000522E530E21E0531608F020E0E22B4A0D15
:1024200031E04A1508F030E04E2E440E21E044160B
:1024300008F020E0322B590D41E0591508F040E03A
:10244000932E950E21E0951608F020E0422B680DA2
:1024500031E0681508F030E0842E860E21E0861603
:1024600008F020E0322B770D41E0771508F040E0CE
:10247000732E770E21E0771608F020E0422B860DB0
:1024800031E0861508F030E0642E680E21E0681611
:1024900008F020E0B32EB22A930DB90EC701B601A1
:1024A0002AE030E040E050E00E94E81F9B01AC01D0
:1024B000550F220B322FA901E62F672F322F422F03
:1024C000522F1E2F100FF1E01E1708F0F0E0E62F3C
:1024D000E50DA1E0E61708F0A0E0AF2EAE0EF1E0AA
:1024E000AE1608F0F0E0AF2BE82FE40DB1E0E817EE
:1024F00008F0B0E00A2F0E0FF1E00E1708F0F0E040
:10250000BF2BE92FE90DF1E0E91708F0F0E0AB2F60
:10251000AE0F81E0AE1708F080E0F82B832F880D16
:1025200061E0831708F060E0F80F91E0F81708F019
:1025300090E0692B842F870D71E0841708F070E01C
:10254000E62FE80F91E0E81708F090E0792B852F4F
:10255000860D61E0851708F060E0780F91E078174C
:1025600008F090E0692B2B0D212E3A2C402E5A2E8C
:102570006F2E7E2E872E962E920EC701B6012AE070
:1025800030E040E050E00E94E81FC901DA016C0130
:102590007D0189818F5F89831C141D041E041F0423
:1025A0000CF419CF20C09101A201B301C401EAE0EB
:1025B000AE2EBB24CC24DD24EE24FF2400E010E06A
:1025C0000E943D07822F805D0E94B7119101A201F8
:1025D000B301C4010E94C80019012A013B014C014A
:1025E000E981E150E983F981FF23E9F60F90CF916A
:1025F000DF911F910F91FF90EF90DF90CF90BF90F0
:10260000AF909F908F907F906F905F904F903F9092
:102610002F9008955F9BFECF8CB10895813039F0E3
:10262000813018F0823031F404C0579A0895569AD8
:102630000895559A0895813039F0813018F082302C
:1026400031F404C057980895569808955598089500
:1026500090938101809380010895909383018093EA
:102660008201089590937F0180937E010895CF9316
:10267000DF93EC0103C00E94B71121968881882363
:10268000D1F7DF91CF91089583E060E040E00E94B0
:10269000AD0D549A83E061E042E00E94AD0D539A83
:1026A000529886E880BD599883E389B910BC089593
:1026B00081B5886081BD089581B5886181BD81B58E
:1026C000877F81BD089581B5886181BD81B5877F90
:1026D00081BD81B5886081BD0895982F883030F420
:1026E00081B5887F81BD81B5892B81BD0895EF9229
:1026F000FF920F931F93FC010580F681E02DE68089
:10270000F7808701045F1F4FC8010E94DE1585EB2B
:1027100091E0B8010E94801520E0E0918401F091E1
:102720008501D70156969C918689981708F021E07B
:10273000822F1F910F91FF90EF900895FF920F93BA
:102740001F93CF93DF9399E0F92E21C0F894E09185
:10275000BA01F091BB0106811781C8010C960E9455
:10276000DE157894E8012296CE010E94DE15F8016C
:10277000968980918601891710F4909386019F9D18
:10278000C001112483579E4FBE010E948015809185
:10279000B5018823D9F60E947E1A209187013091D5
:1027A0008801821B930B90938A018093890189E0B1
:1027B000F82E53C0019690938C0180938B01215089
:1027C000304030938A0120938901892B09F03EC063
:1027D0002091B1013091B2018091B3019091B40187
:1027E0009093B2018093B1013093B4012093B3016F
:1027F0002DC00580F681E02DC681D78120918B0107
:1028000030918C018A819B812817390730F1F89427
:102810008E010E5F1F4FC8010E94DE158C899D89B5
:10282000892B21F0CE010C960E94DE1578949E89AA
:1028300080918601891710F4909386019F9DC001B5
:10284000112483579E4FB8010E948015E091B10179
:10285000F091B2018081882361F620918901309145
:102860008A0180918B0190918C012115310509F02D
:10287000A1CF90938801809387019091860129E0F0
:1028800006C0992319F41092860132C09150929F8C
:10289000D0011124A357BE4F8C91882391F39093BC
:1028A00086011196ED91FC9112970280F381E02D43
:1028B0001296FC93EE931197CD010396E817F90752
:1028C00031F48281938112969C938E931197119685
:1028D000ED91FC9112970680F781E02DF093850130
:1028E000E093840120813181CF016789F901099545
:1028F000DF91CF911F910F91FF9008950F931F9338
:10290000CF93DF93EB0100918B0110918C01080FA5
:10291000191F809184019091850102960E94DE1515
:10292000E0918401F09185011383028380918B01F2
:1029300090918C01BF016E5F7F4F0817190728F433
:102940008091B3019091B40104C08091B101909144
:10295000B2010E94A915209749F0609184017091FD
:102960008501645F7F4FCE010E94A915DF91CF9151
:102970001F910F910895AF92BF92CF92DF92EF9285
:10298000FF920F931F93CF93DF936C01B62EA42E6B
:102990008AE190E00E944515EC01009711F48FEF59
:1029A00059C08091840190918501892B21F5D093A4
:1029B0008501C09384018DE891E00E946C1586E941
:1029C00091E00E946C152FE9E22E21E0F22EC70162
:1029D0000E946C1508EA11E0C8010E946C1585EB95
:1029E00091E00E946C15F092B201E092B101109357
:1029F000B4010093B301EB2CBB2011F0EE24E3945F
:102A0000198E188EEE8AAF8AFE01C192D1928F0183
:102A1000CF010E947C15CE010C960E947C15D987AF
:102A2000C887DB8BCA8B83E090E08E1991099D8764
:102A30008C879E8980918601891710F49093860176
:102A400089E0989FC001112483579E4FB8010E94CE
:102A5000801581E0DF91CF911F910F91FF90EF9052
:102A6000DF90CF90BF90AF90089508951092BF016E
:102A70001092BE01089528EE33E08091BE0190913E
:102A8000BF01281B390BC90108950F931F93CF93E2
:102A9000DF938C010E94781A8091BE019091BF0152
:102AA0009801280F391F43E0283E340758F4821755
:102AB000930740F4EC01C054DE4F3093BF012093E4
:102AC000BE0102C0C0E0D0E00E94D11CCE01DF9167
:102AD000CF911F910F910895FC019C012D5F3F4FF5
:102AE000328321838FEF9FEF948383833683258303
:102AF0003087278310820895FC011186108608957F
:102B0000CF93DF93AC01DB01EC0129813A81F9011C
:102B10008281938113969C938E93129789819A81D7
:102B200015969C938E9314970280F381E02D758304
:102B30006483E9017B836A83FA0172836183199656
:102B40005C934E93189780818F5F8083DF91CF9144
:102B50000895CF93DF939C01EB01488159818FEF5A
:102B60004F3F580721F4F901A781B08510C0D90162
:102B7000139604C012960D90BC91A02D1296ED9163
:102B8000FC911397808191814817590798F7129605
:102B9000ED91FC911397FB83EA83D583C483BD83B6
:102BA000AC831396DC93CE93129739872887F9016B
:102BB00080818F5F8083DF91CF910895CF93DF93E2
:102BC000DC011296ED91FC91139714968D919C91D6
:102BD0001597958384831496CD91DC911597FB838B
:102BE000EA831896ED91FC911997818192818A1759
:102BF0009B0711F4D283C18319961C921E921897D9
:102C0000808181508083DF91CF910895FC0191E113
:102C1000908322E2229383E38293629372931292CF
:102C200080E88293129282E0829383E0829384E030
:102C3000829385E0829386E0829387E0829388E0A6
:102C4000829389E0829380E18293929382E18293DE
:102C500083E1829384E1829385E1829386E182938A
:102C600087E1829388E1829389E1829380E2829373
:102C700081E28293229383E282934293529386E28B
:102C8000829387E2829388E2829389E2829380E34F
:102C9000829381E382933197CF0108951BBC8CE727
:102CA0008ABD8BE08EBD89B7806189BFA091A805E0
:102CB000B091A905CD91CDBFDD91DEBFFF91EF9120
:102CC000DF91CF91BF91AF919F918F917F916F9144
:102CD0005F914F913F912F911F910F91FF90EF9036
:102CE000DF90CF90BF90AF909F908F907F906F902C
:102CF0005F904F903F902F901F900F900FBE0F90BE
:102D0000089581E0089508950F920FB6F8940F92F8
:102D10001F9211242F923F924F925F926F927F9257
:102D20008F929F92AF92BF92CF92DF92EF92FF92DB
:102D30000F931F932F933F934F935F936F937F93C3
:102D40008F939F93AF93BF93CF93DF93EF93FF93B3
:102D5000A091A805B091A9050DB60D920EB60D92E1
:102D60000E94D91B0E94921AA091A805B091A905B2
:102D7000CD91CDBFDD91DEBFFF91EF91DF91CF917E
:102D8000BF91AF919F918F917F916F915F914F9183
:102D90003F912F911F910F91FF90EF90DF90CF9077
:102DA000BF90AF909F908F907F906F905F904F906B
:102DB0003F902F901F900F900FBE0F9008950E948C
:102DC000841618950F920FB6F8940F921F92112443
:102DD0002F923F924F925F926F927F928F929F922B
:102DE000AF92BF92CF92DF92EF92FF920F931F9319
:102DF0002F933F934F935F936F937F938F939F9303
:102E0000AF93BF93CF93DF93EF93FF93A091A80568
:102E1000B091A9050DB60D920EB60D920E94921AB0
:102E2000A091A805B091A905CD91CDBFDD91DEBFE0
:102E3000FF91EF91DF91CF91BF91AF919F918F91D2
:102E40007F916F915F914F913F912F911F910F91C2
:102E5000FF90EF90DF90CF90BF90AF909F908F90BA
:102E60007F906F905F904F903F902F901F900F90AA
:102E70000FBE0F900895FC010FB6F8940F92828D4B
:102E80000F900FBE0895FC01828D0895FC01828D84
:102E900090E0882309F491E0892F0895FC01928D38
:102EA00020E0838D981709F421E0822F08950F9375
:102EB0001F938C01FC01808191810E943515C8010E
:102EC0000E9435151F910F9108950F931F93CF9373
:102ED000DF93EC01FB018A018A8D882381F148810F
:102EE000598141155105A9F08C8D2E813F81280F04
:102EF000311D3F832E838A819B812817390710F06B
:102F00005F834E834C8D6E817F81CF0150E00E94A4
:102F10007B208A8D81508A8F8D8D8F3F69F48885C3
:102F2000882361F0CE0108960E949A1B882331F015
:102F300081E0F801808303C08F5F8D8F81E0DF9196
:102F4000CF911F910F9108950F931F93CF93DF930C
:102F5000EC010FB6F8940F928C010F5E1F4F0DC05D
:102F60008989882369F0C8010E949A1B882311F07F
:102F70000E94191B8E8D81508E8F8E8D181684F3B2
:102F80008FEF8E8F0F900FBE0FB6F8940F928E01B9
:102F9000085F1F4F0DC08885882369F0C8010E9413
:102FA0009A1B882311F00E94191B8D8D81508D8FE3
:102FB0008D8D181684F38FEF8D8F0F900FBEDF91DC
:102FC000CF911F910F9108957F928F929F92AF9210
:102FD000BF92CF92DF92EF92FF920F931F93DF93F6
:102FE000CF9300D000D00F92CDB7DEB78C01962ED4
:102FF000872E5D834C83722E91E1C92ED12CC00E99
:10300000D11E20E07E010894E11CF11C84E0A82E72
:10301000B12CAC0EBD1E01C021E00FB6F8940F928A
:10302000F801828D882309F448C0E680F78040814A
:10303000518141155105B1F0848D9701280F311D43
:1030400037832683828193812817390710F05783AD
:103050004683F801448D66817781892D982D50E053
:103060000E947B207720C1F4F801828D8150828FED
:1030700080819181892B29F40E941D1BF801938383
:103080008283F80180858823A1F0C80108960E94F8
:103090009A1B813071F40BC0F801F782E6828189B6
:1030A000882339F0C6010E949A1B882311F00E94E0
:1030B000E2160F900FBE81E059C08C819D81892B53
:1030C00019F40F900FBE51C0222319F4C7010E94BA
:1030D000D41A0F900FBE0E94781A0FB6F8940F9270
:1030E000F801858D8F3F09F4158EF801868D8F3F8D
:1030F00009F4168E0F900FBEC701B5010E94DF1AAA
:10310000882371F50FB6F8940F92F801828D0F9015
:103110000FBE8823F9F4F80180819181892B51F445
:103120000FB6F8940F92F801828193810E94501B90
:103130000F900FBE6C817D81C6010E94B41CC80136
:103140000E94A4170E94D11C882309F065CF0E9419
:10315000E21662CFC8010E94A4170E94D11C5CCF66
:10316000C8010E94A4170E94D11C80E00F900F900C
:103170000F900F900F90CF91DF911F910F91FF90C3
:10318000EF90DF90CF90BF90AF909F908F907F9007
:103190000895CF93DF93EC01842F4C8D442359F491
:1031A00088819981892BD9F58A819B810E94231B73
:1031B0001B821A8234C08823B1F48C819D8150E037
:1031C0000E947B208C8D2C813D81280F311D3D83F9
:1031D0002C838A819B812817390708F1888199817E
:1031E0009D838C831CC08E819F8150E00E947B2038
:1031F0008C8D90E044275527481B590B8E819F8169
:10320000840F951F9F838E832881398182179307AE
:1032100030F48A819B81840F951F9F838E838A8DD2
:103220008F5F8A8FDF91CF9108950F931F93CF9374
:10323000DF93EC018A019A8D8B8D981710F080E056
:1032400017C0CE01422F0E94C9188E8D8F3F69F49E
:103250008989882361F0CE0141960E949A1B8823B8
:1032600031F081E0F801808303C08F5F8E8F81E0B1
:10327000DF91CF911F910F9108957F928F929F922E
:10328000AF92BF92CF92DF92EF92FF920F931F9374
:10329000DF93CF9300D000D00F92CDB7DEB78C0173
:1032A0006B015D834C83722E48E0E42EF12CE80E16
:1032B000F91E20E05E010894A11CB11C34E0832EAD
:1032C000912C8C0E9D1E01C021E00FB6F8940F9238
:1032D000F801928D838D9817A8F4C801B601472D87
:1032E0000E94C918F8018189882341F0C8014196DC
:1032F0000E949A1B813011F40E94E2160F900FBEBB
:1033000081E04CC08C819D81892B19F40F900FBEF8
:1033100044C0222319F4C5010E94D41A0F900FBE95
:103320000E94781A0FB6F8940F92F801858D8F3F9E
:1033300009F4158EF801868D8F3F09F4168E0F90D3
:103340000FBEC501B4010E94DF1A882309F50FB62C
:10335000F8940F92F801928D0F900FBEF801838DB3
:10336000981781F46C817D81C7010E94B41CC8014B
:103370000E94A4170E94D11C882309F0A5CF0E94A7
:10338000E216A2CFC8010E94A4170E94D11C9CCFB4
:10339000C8010E94A4170E94D11C80E00F900F90DA
:1033A0000F900F900F90CF91DF911F910F91FF9091
:1033B000EF90DF90CF90BF90AF909F908F907F90D5
:1033C0000895CF93DF938FE190E00E944515EC01C3
:1033D0000097F9F01B821A82198218821D821C82C2
:1033E0001F821E821A8E81E08B8F1C8E8FEF8D8F35
:1033F0008E8FCE0108960E946C15CE0141960E94D8
:103400006C15CE0160E070E040E050E020E00E94EA
:103410003D19CE01DF91CF910895AF92BF92CF9227
:10342000DF92EF92FF920F931F93CF93DF93B82E0B
:10343000A62E882309F442C08FE190E00E94451532
:10344000EC010097D9F1EB2CFF24CA2CDD24CE9C93
:103450008001CF9C100DDE9C100D1124C801019637
:103460000E9445159C0199838883009721F1080FDC
:10347000191F1B830A831A8E9D838C830894E1088D
:10348000F108EC9CC001ED9C900DFC9C900D11246A
:10349000280F391F3F832E83BB8EAC8E8FEF8D8F0D
:1034A0008E8FCE0108960E946C15CE0141960E9427
:1034B0006C159E0105C0CE010E94351520E030E05C
:1034C000C901DF91CF911F910F91FF90EF90DF9095
:1034D000CF90BF90AF9008951F93162F60E00E9489
:1034E0000D1AFC01009709F0128FCF011F9108956A
:1034F0008091AF058F5F8093AF0508950FB6F89464
:103500000F922091AD053091AE050F900FBEC9010D
:1035100008952091AD053091AE05C90108958091BF
:10352000B10508958091AF05882351F081E0809323
:10353000AB0508958091AA0581508093AA0501C02A
:1035400099E0E091AA05E99FF0011124EA54FA4FAD
:103550008081882379F39091AA0589E0989FD00112
:103560001124AA54BA4F1196ED91FC911297028042
:10357000F381E02D1296FC93EE931197CD01039603
:10358000E817F90731F48281938112969C938E9308
:1035900011971196ED91FC911297868197819093E6
:1035A000A9058093A8050895FC018091AC0580834E
:1035B0008091AD059091AE05928381830895FC01C1
:1035C000DB010FB6F8940F929091AC0580819817AB
:1035D00049F02091AD053091AE0581819281281787
:1035E000390718F58091AD059091AE0521813281A2
:1035F0004D915C911197821B930B84179507A8F44A
:103600008091AD059091AE05281B390B240F351F15
:103610002D933C938091AC0580838091AD05909172
:10362000AE059283818380E001C081E00F900FBEE0
:10363000089581E08093AB0508952091A80530910D
:10364000A905C90108950F931F93CF93DF93EC0150
:10365000009709F19E8989A19817E9F08E010E5F04
:103660001F4FC8010E94DE1529A12E8B83E090E038
:10367000821B91099D878C878091AA05821710F47F
:103680002093AA0589E0289FC00111248A549A4FEB
:10369000B8010E948015DF91CF911F910F9108957D
:1036A0000F931F93CF93DF93EC01E091A805F09166
:1036B000A9053E8986893817C0F5E091A805F091E3
:1036C000A905268983E090E0821B91099D878C875C
:1036D00089E0389FC00111248A549A4F2A853B857E
:1036E00028173907E1F48E010E5F1F4FC8010E94B1
:1036F000DE15E091A805F091A90596899E8B809131
:10370000AA05891710F49093AA0589E0989FC00133
:1037100011248A549A4FB8010E94801506C0E09186
:10372000A805F091A90586898E8BDF91CF911F9115
:103730000F9108950F931F93CF93DF93FC010580A2
:10374000F681E02D06811781E8012C96CE010E94BA
:10375000DE158091AF058823A9F4E8012296CE01F9
:103760000E94DE15D80156969C918091AA05891772
:1037700010F49093AA0589E0989FC00111248A54FF
:103780009A4F02C087EE95E0BE010E948015E0913D
:10379000A805F091A90520E0D80156969C9186894C
:1037A000981708F021E0822FDF91CF911F910F91A0
:1037B0000895FF920F931F93CF93DF938091AF05EE
:1037C000882309F08FC08091AD059091AE050196D8
:1037D0009093AE058093AD058091AD059091AE05B7
:1037E000892B79F52091E3053091E4058091E50579
:1037F0009091E6059093E4058093E3053093E60508
:103800002093E5058091AC058F5F8093AC05E09136
:10381000E305F091E4058081882319F48FEF9FEF91
:103820000CC0E091E305F091E4050580F681E02D00
:103830000680F781E02D8281938190936C018093C3
:103840006B012091AD053091AE0580916B01909197
:103850006C012817390708F44AC089E0F82EE09176
:10386000E305F091E4058081882339F48FEF9FEF21
:1038700090936C0180936B013AC0E091E305F09165
:10388000E4050580F681E02DC681D7812A813B8140
:103890008091AD059091AE058217930728F430937F
:1038A0006C0120936B0123C08E010E5F1F4FC80176
:1038B0000E94DE158C899D89892B21F0CE010C9602
:1038C0000E94DE159E898091AA05891710F49093B5
:1038D000AA059F9DC00111248A549A4FB8010E94E5
:1038E0008015BDCF8091B0058F5F8093B005DF91CB
:1038F000CF911F910F91FF900895CF93DF93EC012B
:10390000E091A805F091A905938382838091AD058C
:103910009091AE05C817D90768F48091E50590919C
:10392000E6056091A8057091A9056E5F7F4F0E9422
:10393000A91517C08091E3059091E4056091A80551
:103940007091A9056E5F7F4F0E94A91580916B0150
:1039500090916C01C817D90720F4D0936C01C093E3
:103960006B01DF91CF9108950F931F938B016091AD
:10397000A8057091A905645F7F4F0E94A9158091E9
:10398000A8059091A90502960E94DE158091AD05CB
:103990009091AE05800F911F0E947D1C1F910F9189
:1039A0000895CF92DF92FF920F931F93DF93CF93EF
:1039B0000F92CDB7DEB70FB6F8940F928091AF0596
:1039C00081508093AF058091AF05882309F058C0DE
:1039D0008091B105882309F453C0198299E0F92E2A
:1039E0002DC0E091EC05F091ED05C680D780C601B1
:1039F0000C960E94DE1586010E5F1F4FC8010E94C3
:103A0000DE15D60156969C918091AA05891710F46F
:103A10009093AA059F9DC00111248A549A4FB80122
:103A20000E948015E091A805F091A905D60156964F
:103A30009C918689981710F0B1E0B9838091E705D1
:103A4000882379F68091B005882341F40CC00E9448
:103A5000D91B8091B00581508093B0058091B0054D
:103A60008823A9F707C0E981E13021F08091AB05F7
:103A7000813031F41092AB050E94E21681E001C062
:103A800080E00F900FBE0F90CF91DF911F910F91AB
:103A9000FF90DF90CF9008950F931F93CF93DF9304
:103AA000EC010097C9F08091AF058F5F8093AF055F
:103AB0000091AD051091AE058091A8059091A905E2
:103AC00002960E94DE15CE01800F911F0E947D1C80
:103AD0000E94D11C882311F40E94E216DF91CF913D
:103AE0001F910F910895CF93DF93FC01EB0180911B
:103AF000AF058F5F8093AF0520813181C20FD31F47
:103B00008091AD059091AE058217930728F4C217F6
:103B1000D30728F020E00CC0C217D30740F08091F3
:103B2000AD059091AE0520E08C179D0708F421E0CB
:103B3000D183C083222351F08091A8059091A905DB
:103B400002960E94DE15CE010E947D1C0E94D11CAF
:103B5000882311F40E94E216DF91CF910895EF922D
:103B6000FF920F931F93CF93DF938C010FB6F894BE
:103B70000F928091A8059091A9050817190719F4CB
:103B800000E010E003C00115110529F4C091A8055B
:103B9000D091A90501C0E80122E0E22EF12CEC0E43
:103BA000FD1EC7010E94DE158C899D89892B21F09D
:103BB000CE010C960E94DE1580EF95E0B7010E94C1
:103BC00080158091B3058F5F8093B3058091B40514
:103BD0008F5F8093B4050F900FBE8091B20588234C
:103BE00021F0012B11F40E94E216DF91CF911F9179
:103BF0000F91FF90EF900895F8941092B2050E94F3
:103C0000831608950F931F938091B3058823E1F3E2
:103C10008091AF058F5F8093AF051091F0050E94F2
:103C2000D11C112389F30FB6F8940F92E091F5059A
:103C3000F091F60506811781C80102960E94DE15F3
:103C40008091B10581508093B1058091B305815079
:103C50008093B3050F900FBEF8018789908D0E9465
:103C60003515C8010E943515CFCF2F923F925F9234
:103C70006F927F928F929F92AF92BF92CF92DF927C
:103C8000EF92FF920F931F93DF93CF9300D000D05A
:103C9000CDB7DEB79A8389834B015A011901502EA3
:103CA000370182E290E00E9445158B839C838B81D3
:103CB0009C81892B89F0C114D10421F4C5010E9493
:103CC00045156C01EB81FC81D08EC78AC114D104EB
:103CD00029F4CF010E9435158FEFD2C0C60165EAE5
:103CE00070E0A5010E9484200894A108B108EB812E
:103CF000FC81E788F08CEA0CFB1CCF014996B401EB
:103D000048E050E00E948B20EB81FC8110A2052D41
:103D1000F2E0F51508F402E0EB81FC81068B01A3CB
:103D200042E0C42ED12CCE0EDF1EC6010E947C15AF
:103D30008B819C810C960E947C158B819C81FC015F
:103D40009187808783E090E0801B91099587848725
:103D5000F38BE28BC70169817A81A1010E9406166B
:103D6000EB81FC81918380836114710421F0CF0188
:103D7000F301918380830FB6F8940F928091B1057F
:103D80008F5F8093B1058091A8059091A905892B3B
:103D900099F5EB81FC81F093A905E093A80580914A
:103DA000B1058130D1F586EB95E00E946C158FEB63
:103DB00095E00E946C1588EC95E00E946C1531ED41
:103DC000E32E35E0F32EC7010E946C150AED15E0D5
:103DD000C8010E946C1587EE95E00E946C1580EF7B
:103DE00095E00E946C15F092E405E092E3051093D3
:103DF000E6050093E50511C08091B205882369F4BA
:103E0000E091A805F091A9058689581630F08B81BC
:103E10009C819093A9058093A805EB81FC819689EC
:103E20008091B505891710F49093B5058091B4057C
:103E30008F5F8093B405EB81FC8196898091AA0500
:103E4000891710F49093AA05EB81FC81868929E0FB
:103E5000829FC00111248A549A4FB6010E94801596
:103E60000F900FBE8091B205882349F0E091A8051C
:103E7000F091A9058689851510F40E94E21681E06B
:103E80000F900F900F900F90CF91DF911F910F9196
:103E9000FF90EF90DF90CF90BF90AF909F908F906A
:103EA0007F906F905F903F902F900895AF92BF9258
:103EB000CF92DF92EF92FF920F9382E09EE160E655
:103EC00070E045E550E020E030E000E0EE24FF2423
:103ED000CC24DD24AA24BB240E94351E813049F461
:103EE000F8948093B2051092AE051092AD050E9431
:103EF0004E160F91FF90EF90DF90CF90BF90AF9054
:103F00000895DF93CF930F92CDB7DEB78983809169
:103F1000490690914A06BE016F5F7F4F4FEF5FEFFA
:103F200020E00E943D190F90CF91DF9108950F93EB
:103F30001F93DF93CF930F92CDB7DEB70E94441348
:103F400080E00E940E1381E89FE10E9432138E01EF
:103F50000F5F1F4F8091490690914A06B8014FEFBD
:103F60005FEF20E00E94E41789810E94B71188EE7C
:103F700093E00E944C1DEECFAF92BF92CF92DF92A2
:103F8000EF92FF920F9387E99FE160E070E04AEFC4
:103F900050E020E030E001E0EE24FF24CC24DD24DA
:103FA000AA24BB240E94351E82E061E00E940D1A03
:103FB00090934A06809349060E94561F80E090E045
:103FC0000F91FF90EF90DF90CF90BF90AF9008954A
:103FD00097FB092E05260ED057FD04D033D00AD00A
:103FE000001C38F450954095309521953F4F4F4F28
:103FF0005F4F0895F6F790958095709561957F4F86
:104000008F4F9F4F0895629FD001739FF001829F51
:10401000E00DF11D649FE00DF11D929FF00D839F57
:10402000F00D749FF00D659FF00D9927729FB00DF4
:10403000E11DF91F639FB00DE11DF91FBD01CF0107
:1040400011240895A1E21A2EAA1BBB1BFD010DC06D
:10405000AA1FBB1FEE1FFF1FA217B307E407F50738
:1040600020F0A21BB30BE40BF50B661F771F881F14
:10407000991F1A9469F760957095809590959B01AA
:10408000AC01BD01CF0108952F923F924F925F92F4
:104090006F927F928F929F92AF92BF92CF92DF9258
:1040A000EF92FF920F931F93CF93DF93CDB7DEB7BD
:1040B000CA1BDB0B0FB6F894DEBF0FBECDBF099451
:1040C0002A88398848885F846E847D848C849B84A8
:1040D000AA84B984C884DF80EE80FD800C811B81B6
:1040E000AA81B981CE0FD11D0FB6F894DEBF0FBEE5
:1040F000CDBFED010895FB01DC0102C001900D92DE
:1041000041505040D8F70895DC0101C06D934150F3
:104110005040E0F70895FB01DC014150504048F069
:1041200001900D920020C9F701C01D9241505040EE
:08413000E0F70895F894FFCFB9
:1041380049444C450000010202030303030404043C
:10414800040404040405050505050505050505051C
:1041580005050505050606060606060606060606FC
:1041680006060606060606060606060606060606E7
:1041780006060606060707070707070707070707CC
:1041880007070707070707070707070707070707B7
:1041980007070707070707070707070707070707A7
:1041A8000707070707070707070707070707070797
:1041B800070707070708080808080808080808087C
:1041C8000808080808080808080808080808080867
:1041D8000808080808080808080808080808080857
:1041E8000808080808080808080808080808080847
:1041F8000808080808080808080808080808080837
:104208000808080808080808080808080808080826
:104218000808080808080808080808080808080816
:104228000808080808080808080808080808080806
:0E4238000808080808010000000100FFFF0050
:00000001FF
